{
  "_format": "hh-sol-artifact-1",
  "contractName": "Talent",
  "sourceName": "contracts/TalentMarketplace.sol",
  "abi": [
    {
      "inputs": [],
      "stateMutability": "nonpayable",
      "type": "constructor"
    },
    {
      "anonymous": false,
      "inputs": [
        {
          "indexed": true,
          "internalType": "address",
          "name": "owner",
          "type": "address"
        },
        {
          "indexed": true,
          "internalType": "address",
          "name": "approved",
          "type": "address"
        },
        {
          "indexed": true,
          "internalType": "uint256",
          "name": "tokenId",
          "type": "uint256"
        }
      ],
      "name": "Approval",
      "type": "event"
    },
    {
      "anonymous": false,
      "inputs": [
        {
          "indexed": true,
          "internalType": "address",
          "name": "owner",
          "type": "address"
        },
        {
          "indexed": true,
          "internalType": "address",
          "name": "operator",
          "type": "address"
        },
        {
          "indexed": false,
          "internalType": "bool",
          "name": "approved",
          "type": "bool"
        }
      ],
      "name": "ApprovalForAll",
      "type": "event"
    },
    {
      "anonymous": false,
      "inputs": [
        {
          "indexed": true,
          "internalType": "uint256",
          "name": "tokenId",
          "type": "uint256"
        },
        {
          "indexed": false,
          "internalType": "address",
          "name": "artiste",
          "type": "address"
        },
        {
          "indexed": false,
          "internalType": "address",
          "name": "owner",
          "type": "address"
        },
        {
          "indexed": false,
          "internalType": "bool",
          "name": "contacted",
          "type": "bool"
        },
        {
          "indexed": false,
          "internalType": "bool",
          "name": "infringement",
          "type": "bool"
        }
      ],
      "name": "MarketItemCreated",
      "type": "event"
    },
    {
      "anonymous": false,
      "inputs": [
        {
          "indexed": true,
          "internalType": "address",
          "name": "from",
          "type": "address"
        },
        {
          "indexed": true,
          "internalType": "address",
          "name": "to",
          "type": "address"
        },
        {
          "indexed": true,
          "internalType": "uint256",
          "name": "tokenId",
          "type": "uint256"
        }
      ],
      "name": "Transfer",
      "type": "event"
    },
    {
      "anonymous": false,
      "inputs": [
        {
          "indexed": true,
          "internalType": "uint256",
          "name": "tokenId",
          "type": "uint256"
        },
        {
          "indexed": false,
          "internalType": "address",
          "name": "usersAdd",
          "type": "address"
        },
        {
          "indexed": false,
          "internalType": "address",
          "name": "ownerAdd",
          "type": "address"
        },
        {
          "indexed": false,
          "internalType": "bool",
          "name": "haveWatched",
          "type": "bool"
        }
      ],
      "name": "ViewCreated",
      "type": "event"
    },
    {
      "inputs": [
        {
          "internalType": "address",
          "name": "to",
          "type": "address"
        },
        {
          "internalType": "uint256",
          "name": "tokenId",
          "type": "uint256"
        }
      ],
      "name": "approve",
      "outputs": [],
      "stateMutability": "nonpayable",
      "type": "function"
    },
    {
      "inputs": [
        {
          "internalType": "address",
          "name": "owner",
          "type": "address"
        }
      ],
      "name": "balanceOf",
      "outputs": [
        {
          "internalType": "uint256",
          "name": "",
          "type": "uint256"
        }
      ],
      "stateMutability": "view",
      "type": "function"
    },
    {
      "inputs": [
        {
          "internalType": "uint256",
          "name": "tokenId",
          "type": "uint256"
        }
      ],
      "name": "createMarketSale",
      "outputs": [],
      "stateMutability": "nonpayable",
      "type": "function"
    },
    {
      "inputs": [
        {
          "internalType": "string",
          "name": "tokenURI",
          "type": "string"
        }
      ],
      "name": "createToken",
      "outputs": [
        {
          "internalType": "uint256",
          "name": "",
          "type": "uint256"
        }
      ],
      "stateMutability": "payable",
      "type": "function"
    },
    {
      "inputs": [
        {
          "internalType": "uint256",
          "name": "tokenId",
          "type": "uint256"
        }
      ],
      "name": "createView",
      "outputs": [],
      "stateMutability": "nonpayable",
      "type": "function"
    },
    {
      "inputs": [],
      "name": "fetchAllValidMarketItems",
      "outputs": [
        {
          "components": [
            {
              "internalType": "uint256",
              "name": "tokenId",
              "type": "uint256"
            },
            {
              "internalType": "address payable",
              "name": "artiste",
              "type": "address"
            },
            {
              "internalType": "address payable",
              "name": "owner",
              "type": "address"
            },
            {
              "internalType": "bool",
              "name": "contacted",
              "type": "bool"
            },
            {
              "internalType": "bool",
              "name": "infringement",
              "type": "bool"
            }
          ],
          "internalType": "struct Talent.MarketItem[]",
          "name": "",
          "type": "tuple[]"
        }
      ],
      "stateMutability": "view",
      "type": "function"
    },
    {
      "inputs": [],
      "name": "fetchAllViews",
      "outputs": [
        {
          "components": [
            {
              "internalType": "uint256",
              "name": "tokenId",
              "type": "uint256"
            },
            {
              "internalType": "address",
              "name": "usersAdd",
              "type": "address"
            },
            {
              "internalType": "address",
              "name": "ownerAdd",
              "type": "address"
            },
            {
              "internalType": "bool",
              "name": "haveWatched",
              "type": "bool"
            }
          ],
          "internalType": "struct Talent.Watched[]",
          "name": "",
          "type": "tuple[]"
        }
      ],
      "stateMutability": "view",
      "type": "function"
    },
    {
      "inputs": [],
      "name": "fetchItemsListed",
      "outputs": [
        {
          "components": [
            {
              "internalType": "uint256",
              "name": "tokenId",
              "type": "uint256"
            },
            {
              "internalType": "address payable",
              "name": "artiste",
              "type": "address"
            },
            {
              "internalType": "address payable",
              "name": "owner",
              "type": "address"
            },
            {
              "internalType": "bool",
              "name": "contacted",
              "type": "bool"
            },
            {
              "internalType": "bool",
              "name": "infringement",
              "type": "bool"
            }
          ],
          "internalType": "struct Talent.MarketItem[]",
          "name": "",
          "type": "tuple[]"
        }
      ],
      "stateMutability": "view",
      "type": "function"
    },
    {
      "inputs": [],
      "name": "fetchMyNFTs",
      "outputs": [
        {
          "components": [
            {
              "internalType": "uint256",
              "name": "tokenId",
              "type": "uint256"
            },
            {
              "internalType": "address payable",
              "name": "artiste",
              "type": "address"
            },
            {
              "internalType": "address payable",
              "name": "owner",
              "type": "address"
            },
            {
              "internalType": "bool",
              "name": "contacted",
              "type": "bool"
            },
            {
              "internalType": "bool",
              "name": "infringement",
              "type": "bool"
            }
          ],
          "internalType": "struct Talent.MarketItem[]",
          "name": "",
          "type": "tuple[]"
        }
      ],
      "stateMutability": "view",
      "type": "function"
    },
    {
      "inputs": [
        {
          "internalType": "uint256",
          "name": "_tokenId",
          "type": "uint256"
        }
      ],
      "name": "fetchNFT",
      "outputs": [
        {
          "components": [
            {
              "internalType": "uint256",
              "name": "tokenId",
              "type": "uint256"
            },
            {
              "internalType": "address payable",
              "name": "artiste",
              "type": "address"
            },
            {
              "internalType": "address payable",
              "name": "owner",
              "type": "address"
            },
            {
              "internalType": "bool",
              "name": "contacted",
              "type": "bool"
            },
            {
              "internalType": "bool",
              "name": "infringement",
              "type": "bool"
            }
          ],
          "internalType": "struct Talent.MarketItem[]",
          "name": "",
          "type": "tuple[]"
        }
      ],
      "stateMutability": "view",
      "type": "function"
    },
    {
      "inputs": [
        {
          "internalType": "uint256",
          "name": "_tokenId",
          "type": "uint256"
        }
      ],
      "name": "fetchOneNFT",
      "outputs": [
        {
          "components": [
            {
              "internalType": "uint256",
              "name": "tokenId",
              "type": "uint256"
            },
            {
              "internalType": "address payable",
              "name": "artiste",
              "type": "address"
            },
            {
              "internalType": "address payable",
              "name": "owner",
              "type": "address"
            },
            {
              "internalType": "bool",
              "name": "contacted",
              "type": "bool"
            },
            {
              "internalType": "bool",
              "name": "infringement",
              "type": "bool"
            }
          ],
          "internalType": "struct Talent.MarketItem[]",
          "name": "",
          "type": "tuple[]"
        }
      ],
      "stateMutability": "view",
      "type": "function"
    },
    {
      "inputs": [
        {
          "internalType": "uint256",
          "name": "tokenId",
          "type": "uint256"
        }
      ],
      "name": "getApproved",
      "outputs": [
        {
          "internalType": "address",
          "name": "",
          "type": "address"
        }
      ],
      "stateMutability": "view",
      "type": "function"
    },
    {
      "inputs": [
        {
          "internalType": "uint256",
          "name": "tokenId",
          "type": "uint256"
        }
      ],
      "name": "getMusicViews",
      "outputs": [
        {
          "internalType": "uint256",
          "name": "",
          "type": "uint256"
        }
      ],
      "stateMutability": "view",
      "type": "function"
    },
    {
      "inputs": [],
      "name": "getTotalViews",
      "outputs": [
        {
          "internalType": "uint256",
          "name": "",
          "type": "uint256"
        }
      ],
      "stateMutability": "view",
      "type": "function"
    },
    {
      "inputs": [
        {
          "internalType": "address",
          "name": "owner",
          "type": "address"
        },
        {
          "internalType": "address",
          "name": "operator",
          "type": "address"
        }
      ],
      "name": "isApprovedForAll",
      "outputs": [
        {
          "internalType": "bool",
          "name": "",
          "type": "bool"
        }
      ],
      "stateMutability": "view",
      "type": "function"
    },
    {
      "inputs": [],
      "name": "name",
      "outputs": [
        {
          "internalType": "string",
          "name": "",
          "type": "string"
        }
      ],
      "stateMutability": "view",
      "type": "function"
    },
    {
      "inputs": [
        {
          "internalType": "uint256",
          "name": "tokenId",
          "type": "uint256"
        }
      ],
      "name": "ownerOf",
      "outputs": [
        {
          "internalType": "address",
          "name": "",
          "type": "address"
        }
      ],
      "stateMutability": "view",
      "type": "function"
    },
    {
      "inputs": [
        {
          "internalType": "uint256",
          "name": "tokenId",
          "type": "uint256"
        }
      ],
      "name": "reportItem",
      "outputs": [],
      "stateMutability": "nonpayable",
      "type": "function"
    },
    {
      "inputs": [
        {
          "internalType": "address",
          "name": "from",
          "type": "address"
        },
        {
          "internalType": "address",
          "name": "to",
          "type": "address"
        },
        {
          "internalType": "uint256",
          "name": "tokenId",
          "type": "uint256"
        }
      ],
      "name": "safeTransferFrom",
      "outputs": [],
      "stateMutability": "nonpayable",
      "type": "function"
    },
    {
      "inputs": [
        {
          "internalType": "address",
          "name": "from",
          "type": "address"
        },
        {
          "internalType": "address",
          "name": "to",
          "type": "address"
        },
        {
          "internalType": "uint256",
          "name": "tokenId",
          "type": "uint256"
        },
        {
          "internalType": "bytes",
          "name": "_data",
          "type": "bytes"
        }
      ],
      "name": "safeTransferFrom",
      "outputs": [],
      "stateMutability": "nonpayable",
      "type": "function"
    },
    {
      "inputs": [
        {
          "internalType": "address",
          "name": "operator",
          "type": "address"
        },
        {
          "internalType": "bool",
          "name": "approved",
          "type": "bool"
        }
      ],
      "name": "setApprovalForAll",
      "outputs": [],
      "stateMutability": "nonpayable",
      "type": "function"
    },
    {
      "inputs": [
        {
          "internalType": "bytes4",
          "name": "interfaceId",
          "type": "bytes4"
        }
      ],
      "name": "supportsInterface",
      "outputs": [
        {
          "internalType": "bool",
          "name": "",
          "type": "bool"
        }
      ],
      "stateMutability": "view",
      "type": "function"
    },
    {
      "inputs": [],
      "name": "symbol",
      "outputs": [
        {
          "internalType": "string",
          "name": "",
          "type": "string"
        }
      ],
      "stateMutability": "view",
      "type": "function"
    },
    {
      "inputs": [
        {
          "internalType": "uint256",
          "name": "tokenId",
          "type": "uint256"
        }
      ],
      "name": "tokenURI",
      "outputs": [
        {
          "internalType": "string",
          "name": "",
          "type": "string"
        }
      ],
      "stateMutability": "view",
      "type": "function"
    },
    {
      "inputs": [
        {
          "internalType": "address",
          "name": "from",
          "type": "address"
        },
        {
          "internalType": "address",
          "name": "to",
          "type": "address"
        },
        {
          "internalType": "uint256",
          "name": "tokenId",
          "type": "uint256"
        }
      ],
      "name": "transferFrom",
      "outputs": [],
      "stateMutability": "nonpayable",
      "type": "function"
    }
  ],
  "bytecode": "0x60806040523480156200001157600080fd5b506040518060400160405280600d81526020016c54616c656e74204d757369636160981b81525060405180604001604052806004815260200163746d757360e01b815250816000908162000066919062000135565b50600162000075828262000135565b5050600980546001600160a01b031916331790555062000201565b634e487b7160e01b600052604160045260246000fd5b600181811c90821680620000bb57607f821691505b602082108103620000dc57634e487b7160e01b600052602260045260246000fd5b50919050565b601f8211156200013057600081815260208120601f850160051c810160208610156200010b5750805b601f850160051c820191505b818110156200012c5782815560010162000117565b5050505b505050565b81516001600160401b0381111562000151576200015162000090565b6200016981620001628454620000a6565b84620000e2565b602080601f831160018114620001a15760008415620001885750858301515b600019600386901b1c1916600185901b1785556200012c565b600085815260208120601f198616915b82811015620001d257888601518255948401946001909101908401620001b1565b5085821015620001f15787850151600019600388901b60f8161c191681555b5050505050600190811b01905550565b6129d980620002116000396000f3fe6080604052600436106101665760003560e01c80636352211e116100d1578063bd0dc0ca1161008a578063c87b56dd11610064578063c87b56dd1461043f578063deb1250d1461045f578063dfd625d31461047f578063e985e9c51461049457600080fd5b8063bd0dc0ca146103cb578063be9af536146103e0578063c60d13b01461041f57600080fd5b80636352211e1461031657806370a082311461033657806395d89b4114610356578063a22cb4651461036b578063b796fc681461038b578063b88d4fde146103ab57600080fd5b806323b872dd1161012357806323b872dd146102605780632b8eb0111461028057806342842e0e146102a057806345576f94146102c057806345f8fa80146102e1578063572e2647146102f657600080fd5b806301ffc9a71461016b57806306fdde03146101a0578063081812fc146101c2578063095ea7b3146101fa578063099942601461021c578063202e37401461023e575b600080fd5b34801561017757600080fd5b5061018b6101863660046122ad565b6104b4565b60405190151581526020015b60405180910390f35b3480156101ac57600080fd5b506101b5610506565b604051610197919061231a565b3480156101ce57600080fd5b506101e26101dd36600461232d565b610598565b6040516001600160a01b039091168152602001610197565b34801561020657600080fd5b5061021a610215366004612362565b610625565b005b34801561022857600080fd5b5061023161073a565b604051610197919061238c565b34801561024a57600080fd5b506102536108b9565b60405161019791906123fe565b34801561026c57600080fd5b5061021a61027b36600461246f565b610a77565b34801561028c57600080fd5b5061021a61029b36600461232d565b610aa8565b3480156102ac57600080fd5b5061021a6102bb36600461246f565b610ba1565b6102d36102ce366004612537565b610bbc565b604051908152602001610197565b3480156102ed57600080fd5b50610253610bf6565b34801561030257600080fd5b506102d361031136600461232d565b610db4565b34801561032257600080fd5b506101e261033136600461232d565b610fab565b34801561034257600080fd5b506102d3610351366004612580565b611022565b34801561036257600080fd5b506101b56110a9565b34801561037757600080fd5b5061021a61038636600461259b565b6110b8565b34801561039757600080fd5b506102536103a636600461232d565b6110c7565b3480156103b757600080fd5b5061021a6103c63660046125d7565b611279565b3480156103d757600080fd5b506102536112b1565b3480156103ec57600080fd5b5061021a6103fb36600461232d565b6000908152600a60205260409020600201805460ff60a01b1916600160a01b179055565b34801561042b57600080fd5b5061021a61043a36600461232d565b611417565b34801561044b57600080fd5b506101b561045a36600461232d565b6114ed565b34801561046b57600080fd5b5061025361047a36600461232d565b611663565b34801561048b57600080fd5b506102d361180b565b3480156104a057600080fd5b5061018b6104af366004612653565b611817565b60006001600160e01b031982166380ac58cd60e01b14806104e557506001600160e01b03198216635b5e139f60e01b145b8061050057506301ffc9a760e01b6001600160e01b03198316145b92915050565b60606000805461051590612686565b80601f016020809104026020016040519081016040528092919081815260200182805461054190612686565b801561058e5780601f106105635761010080835404028352916020019161058e565b820191906000526020600020905b81548152906001019060200180831161057157829003601f168201915b5050505050905090565b60006105a382611845565b6106095760405162461bcd60e51b815260206004820152602c60248201527f4552433732313a20617070726f76656420717565727920666f72206e6f6e657860448201526b34b9ba32b73a103a37b5b2b760a11b60648201526084015b60405180910390fd5b506000908152600460205260409020546001600160a01b031690565b600061063082610fab565b9050806001600160a01b0316836001600160a01b03160361069d5760405162461bcd60e51b815260206004820152602160248201527f4552433732313a20617070726f76616c20746f2063757272656e74206f776e656044820152603960f91b6064820152608401610600565b336001600160a01b03821614806106b957506106b98133611817565b61072b5760405162461bcd60e51b815260206004820152603860248201527f4552433732313a20617070726f76652063616c6c6572206973206e6f74206f7760448201527f6e6572206e6f7220617070726f76656420666f7220616c6c00000000000000006064820152608401610600565b6107358383611862565b505050565b6060600061074760085490565b9050600061075460085490565b90506000808267ffffffffffffffff811115610772576107726124ab565b6040519080825280602002602001820160405280156107c457816020015b6040805160808101825260008082526020808301829052928201819052606082015282526000199092019101816107905790505b50905060005b848110156108b057600b60006107e18360016126d6565b8152602081019190915260400160002060020154600160a01b900460ff16151560010361089e5760006108158260016126d6565b6000818152600b602090815260409182902082516080810184528154815260018201546001600160a01b0390811693820193909352600282015492831693810193909352600160a01b90910460ff1615156060830152855192935091859087908110610883576108836126e9565b60209081029190910101526108996001866126d6565b945050505b806108a8816126ff565b9150506107ca565b50949350505050565b606060006108c660075490565b905060008060005b838110156109285733600a60006108e68460016126d6565b81526020810191909152604001600020600201546001600160a01b031603610916576109136001846126d6565b92505b80610920816126ff565b9150506108ce565b5060008267ffffffffffffffff811115610944576109446124ab565b60405190808252806020026020018201604052801561097d57816020015b61096a612269565b8152602001906001900390816109625790505b50905060005b848110156108b05733600a600061099b8460016126d6565b81526020810191909152604001600020600201546001600160a01b031603610a655760006109ca8260016126d6565b6000818152600a6020908152604091829020825160a0810184528154815260018201546001600160a01b039081169382019390935260028201549283169381019390935260ff600160a01b8304811615156060850152600160a81b90920490911615156080830152855192935091859087908110610a4a57610a4a6126e9565b6020908102919091010152610a606001866126d6565b945050505b80610a6f816126ff565b915050610983565b610a8133826118d0565b610a9d5760405162461bcd60e51b815260040161060090612718565b610735838383611999565b6009546001600160a01b03163314610aee5760405162461bcd60e51b81526020600482015260096024820152682737ba1037bbb732b960b91b6044820152606401610600565b6000818152600a6020526040902060018101546002909101546001600160a01b0390911690600160a01b900460ff16610b2682611b35565b610b2f81611b7d565b6000838152600a602052604090209283556001830180546001600160a01b039093166001600160a01b0319909316929092179091556002909101805460ff60a81b19921515600160a01b0260ff60a01b1930166001600160a81b0319909216919091171791909116600160a81b179055565b61073583838360405180602001604052806000815250611279565b6000610bcc600780546001019055565b6000610bd760075490565b9050610be33382611bbe565b610bed8184611cf1565b61050081611d75565b60606000610c0360075490565b905060008060005b83811015610c655733600a6000610c238460016126d6565b81526020810191909152604001600020600101546001600160a01b031603610c5357610c506001846126d6565b92505b80610c5d816126ff565b915050610c0b565b5060008267ffffffffffffffff811115610c8157610c816124ab565b604051908082528060200260200182016040528015610cba57816020015b610ca7612269565b815260200190600190039081610c9f5790505b50905060005b848110156108b05733600a6000610cd88460016126d6565b81526020810191909152604001600020600101546001600160a01b031603610da2576000610d078260016126d6565b6000818152600a6020908152604091829020825160a0810184528154815260018201546001600160a01b039081169382019390935260028201549283169381019390935260ff600160a01b8304811615156060850152600160a81b90920490911615156080830152855192935091859087908110610d8757610d876126e9565b6020908102919091010152610d9d6001866126d6565b945050505b80610dac816126ff565b915050610cc0565b600080610dc060085490565b905060008060005b83811015610e555785600b6000610de08460016126d6565b815260200190815260200160002060000154148015610e305750600b6000610e098360016126d6565b815260200190815260200160002060020160149054906101000a900460ff16151560011515145b15610e4357610e406001846126d6565b92505b80610e4d816126ff565b915050610dc8565b5060008267ffffffffffffffff811115610e7157610e716124ab565b604051908082528060200260200182016040528015610ec357816020015b604080516080810182526000808252602080830182905292820181905260608201528252600019909201910181610e8f5790505b50905060005b84811015610fa05786600b6000610ee18460016126d6565b81526020019081526020016000206000015403610f8e576000610f058260016126d6565b6000818152600b602090815260409182902082516080810184528154815260018201546001600160a01b0390811693820193909352600282015492831693810193909352600160a01b90910460ff1615156060830152855192935091859087908110610f7357610f736126e9565b6020908102919091010152610f896001866126d6565b945050505b80610f98816126ff565b915050610ec9565b509195945050505050565b6000818152600260205260408120546001600160a01b0316806105005760405162461bcd60e51b815260206004820152602960248201527f4552433732313a206f776e657220717565727920666f72206e6f6e657869737460448201526832b73a103a37b5b2b760b91b6064820152608401610600565b60006001600160a01b03821661108d5760405162461bcd60e51b815260206004820152602a60248201527f4552433732313a2062616c616e636520717565727920666f7220746865207a65604482015269726f206164647265737360b01b6064820152608401610600565b506001600160a01b031660009081526003602052604090205490565b60606001805461051590612686565b6110c3338383611e6d565b5050565b606060006110d460075490565b905060008060005b8381101561112b5785600a60006110f48460016126d6565b81526020019081526020016000206000015403611119576111166001846126d6565b92505b80611123816126ff565b9150506110dc565b5060008267ffffffffffffffff811115611147576111476124ab565b60405190808252806020026020018201604052801561118057816020015b61116d612269565b8152602001906001900390816111655790505b50905060005b8481101561126f5786600a600061119e8460016126d6565b8152602001908152602001600020600001540361125d5760006111c28260016126d6565b6000818152600a6020908152604091829020825160a0810184528154815260018201546001600160a01b039081169382019390935260028201549283169381019390935260ff600160a01b8304811615156060850152600160a81b90920490911615156080830152855192935091859087908110611242576112426126e9565b60209081029190910101526112586001866126d6565b945050505b80611267816126ff565b915050611186565b5095945050505050565b61128333836118d0565b61129f5760405162461bcd60e51b815260040161060090612718565b6112ab84848484611f3b565b50505050565b606060006112be60075490565b90506000808267ffffffffffffffff8111156112dc576112dc6124ab565b60405190808252806020026020018201604052801561131557816020015b611302612269565b8152602001906001900390816112fa5790505b50905060005b8381101561140f5730600a60006113338460016126d6565b81526020810191909152604001600020600201546001600160a01b0316036113fd5760006113628260016126d6565b6000818152600a6020908152604091829020825160a0810184528154815260018201546001600160a01b039081169382019390935260028201549283169381019390935260ff600160a01b8304811615156060850152600160a81b909204909116151560808301528551929350918590879081106113e2576113e26126e9565b60209081029190910101526113f86001866126d6565b945050505b80611407816126ff565b91505061131b565b509392505050565b60408051608081018252828152336020808301828152308486018181526001606080880182815260008b8152600b88528a902098518955945188830180546001600160a01b039283166001600160a01b031990911617905592516002909801805495511515600160a01b026001600160a81b031990961698909316979097179390931790558551938452918301919091529281019290925282917fd152fd0be0c9c419d7513b57ea73deeb1ec73ffaa531735689515152f1efbdfb910160405180910390a26114ea600880546001019055565b50565b60606114f882611845565b61155e5760405162461bcd60e51b815260206004820152603160248201527f45524337323155524953746f726167653a2055524920717565727920666f72206044820152703737b732bc34b9ba32b73a103a37b5b2b760791b6064820152608401610600565b6000828152600660205260408120805461157790612686565b80601f01602080910402602001604051908101604052809291908181526020018280546115a390612686565b80156115f05780601f106115c5576101008083540402835291602001916115f0565b820191906000526020600020905b8154815290600101906020018083116115d357829003601f168201915b50505050509050600061160e60408051602081019091526000815290565b90508051600003611620575092915050565b81511561165257808260405160200161163a929190612769565b60405160208183030381529060405292505050919050565b61165b84611f6e565b949350505050565b6060600061167060075490565b905060008060005b838110156116c75785600a60006116908460016126d6565b815260200190815260200160002060000154036116b5576116b26001846126d6565b92505b806116bf816126ff565b915050611678565b5060008267ffffffffffffffff8111156116e3576116e36124ab565b60405190808252806020026020018201604052801561171c57816020015b611709612269565b8152602001906001900390816117015790505b50905060005b8481101561126f5786600a600061173a8460016126d6565b815260200190815260200160002060000154036117f957600061175e8260016126d6565b6000818152600a6020908152604091829020825160a0810184528154815260018201546001600160a01b039081169382019390935260028201549283169381019390935260ff600160a01b8304811615156060850152600160a81b909204909116151560808301528551929350918590879081106117de576117de6126e9565b60209081029190910101526117f46001866126d6565b945050505b80611803816126ff565b915050611722565b60008061050060085490565b6001600160a01b03918216600090815260056020908152604080832093909416825291909152205460ff1690565b6000908152600260205260409020546001600160a01b0316151590565b600081815260046020526040902080546001600160a01b0319166001600160a01b038416908117909155819061189782610fab565b6001600160a01b03167f8c5be1e5ebec7d5bd14f71427d1e84f3dd0314c0f7b2291e5b200ac8c7c3b92560405160405180910390a45050565b60006118db82611845565b61193c5760405162461bcd60e51b815260206004820152602c60248201527f4552433732313a206f70657261746f7220717565727920666f72206e6f6e657860448201526b34b9ba32b73a103a37b5b2b760a11b6064820152608401610600565b600061194783610fab565b9050806001600160a01b0316846001600160a01b0316148061196e575061196e8185611817565b8061165b5750836001600160a01b031661198784610598565b6001600160a01b031614949350505050565b826001600160a01b03166119ac82610fab565b6001600160a01b031614611a105760405162461bcd60e51b815260206004820152602560248201527f4552433732313a207472616e736665722066726f6d20696e636f72726563742060448201526437bbb732b960d91b6064820152608401610600565b6001600160a01b038216611a725760405162461bcd60e51b8152602060048201526024808201527f4552433732313a207472616e7366657220746f20746865207a65726f206164646044820152637265737360e01b6064820152608401610600565b611a7d600082611862565b6001600160a01b0383166000908152600360205260408120805460019290611aa6908490612798565b90915550506001600160a01b0382166000908152600360205260408120805460019290611ad49084906126d6565b909155505060008181526002602052604080822080546001600160a01b0319166001600160a01b0386811691821790925591518493918716917fddf252ad1be2c89b69c2b068fc378daa952ba7f163c4a11628f55a4df523b3ef91a4505050565b6040516001600160a01b03821660248201526114ea9060440160408051601f198184030181529190526020810180516001600160e01b031663161765e160e11b179052612046565b60405181151560248201526114ea9060440160408051601f198184030181529190526020810180516001600160e01b03166332458eed60e01b179052612046565b6001600160a01b038216611c145760405162461bcd60e51b815260206004820181905260248201527f4552433732313a206d696e7420746f20746865207a65726f20616464726573736044820152606401610600565b611c1d81611845565b15611c6a5760405162461bcd60e51b815260206004820152601c60248201527f4552433732313a20746f6b656e20616c7265616479206d696e746564000000006044820152606401610600565b6001600160a01b0382166000908152600360205260408120805460019290611c939084906126d6565b909155505060008181526002602052604080822080546001600160a01b0319166001600160a01b03861690811790915590518392907fddf252ad1be2c89b69c2b068fc378daa952ba7f163c4a11628f55a4df523b3ef908290a45050565b611cfa82611845565b611d5d5760405162461bcd60e51b815260206004820152602e60248201527f45524337323155524953746f726167653a2055524920736574206f66206e6f6e60448201526d32bc34b9ba32b73a103a37b5b2b760911b6064820152608401610600565b600082815260066020526040902061073582826127f9565b6040805160a08101825282815233602080830182815230848601818152600060608701818152608088018281528a8352600a9096529790209551865591516001860180546001600160a01b039283166001600160a01b0319909116179055915160029095018054965193511515600160a81b0260ff60a81b19941515600160a01b026001600160a81b03199098169690931695909517959095179190911617909155611e219183611999565b6040805133815230602082015260008183018190526060820152905182917f40a4088f1b7ea23255c346b1ec64f54ec141ede15fa9e6a7c07f457d863f828f919081900360800190a250565b816001600160a01b0316836001600160a01b031603611ece5760405162461bcd60e51b815260206004820152601960248201527f4552433732313a20617070726f766520746f2063616c6c6572000000000000006044820152606401610600565b6001600160a01b03838116600081815260056020908152604080832094871680845294825291829020805460ff191686151590811790915591519182527f17307eab39ab6107e8899845ad3d59bd9653f200f220920489ca2b5937696c31910160405180910390a3505050565b611f46848484611999565b611f5284848484612067565b6112ab5760405162461bcd60e51b8152600401610600906128b9565b6060611f7982611845565b611fdd5760405162461bcd60e51b815260206004820152602f60248201527f4552433732314d657461646174613a2055524920717565727920666f72206e6f60448201526e3732bc34b9ba32b73a103a37b5b2b760891b6064820152608401610600565b6000611ff460408051602081019091526000815290565b90506000815111612014576040518060200160405280600081525061203f565b8061201e84612168565b60405160200161202f929190612769565b6040516020818303038152906040525b9392505050565b80516a636f6e736f6c652e6c6f67602083016000808483855afa5050505050565b60006001600160a01b0384163b1561215d57604051630a85bd0160e11b81526001600160a01b0385169063150b7a02906120ab90339089908890889060040161290b565b6020604051808303816000875af19250505080156120e6575060408051601f3d908101601f191682019092526120e391810190612948565b60015b612143573d808015612114576040519150601f19603f3d011682016040523d82523d6000602084013e612119565b606091505b50805160000361213b5760405162461bcd60e51b8152600401610600906128b9565b805181602001fd5b6001600160e01b031916630a85bd0160e11b14905061165b565b506001949350505050565b60608160000361218f5750506040805180820190915260018152600360fc1b602082015290565b8160005b81156121b957806121a3816126ff565b91506121b29050600a8361297b565b9150612193565b60008167ffffffffffffffff8111156121d4576121d46124ab565b6040519080825280601f01601f1916602001820160405280156121fe576020820181803683370190505b5090505b841561165b57612213600183612798565b9150612220600a8661298f565b61222b9060306126d6565b60f81b818381518110612240576122406126e9565b60200101906001600160f81b031916908160001a905350612262600a8661297b565b9450612202565b6040805160a08101825260008082526020820181905291810182905260608101829052608081019190915290565b6001600160e01b0319811681146114ea57600080fd5b6000602082840312156122bf57600080fd5b813561203f81612297565b60005b838110156122e55781810151838201526020016122cd565b50506000910152565b600081518084526123068160208601602086016122ca565b601f01601f19169290920160200192915050565b60208152600061203f60208301846122ee565b60006020828403121561233f57600080fd5b5035919050565b80356001600160a01b038116811461235d57600080fd5b919050565b6000806040838503121561237557600080fd5b61237e83612346565b946020939093013593505050565b602080825282518282018190526000919060409081850190868401855b828110156123f157815180518552868101516001600160a01b0390811688870152868201511686860152606090810151151590850152608090930192908501906001016123a9565b5091979650505050505050565b602080825282518282018190526000919060409081850190868401855b828110156123f157815180518552868101516001600160a01b039081168887015286820151168686015260608082015115159086015260809081015115159085015260a0909301929085019060010161241b565b60008060006060848603121561248457600080fd5b61248d84612346565b925061249b60208501612346565b9150604084013590509250925092565b634e487b7160e01b600052604160045260246000fd5b600067ffffffffffffffff808411156124dc576124dc6124ab565b604051601f8501601f19908116603f01168101908282118183101715612504576125046124ab565b8160405280935085815286868601111561251d57600080fd5b858560208301376000602087830101525050509392505050565b60006020828403121561254957600080fd5b813567ffffffffffffffff81111561256057600080fd5b8201601f8101841361257157600080fd5b61165b848235602084016124c1565b60006020828403121561259257600080fd5b61203f82612346565b600080604083850312156125ae57600080fd5b6125b783612346565b9150602083013580151581146125cc57600080fd5b809150509250929050565b600080600080608085870312156125ed57600080fd5b6125f685612346565b935061260460208601612346565b925060408501359150606085013567ffffffffffffffff81111561262757600080fd5b8501601f8101871361263857600080fd5b612647878235602084016124c1565b91505092959194509250565b6000806040838503121561266657600080fd5b61266f83612346565b915061267d60208401612346565b90509250929050565b600181811c9082168061269a57607f821691505b6020821081036126ba57634e487b7160e01b600052602260045260246000fd5b50919050565b634e487b7160e01b600052601160045260246000fd5b80820180821115610500576105006126c0565b634e487b7160e01b600052603260045260246000fd5b600060018201612711576127116126c0565b5060010190565b60208082526031908201527f4552433732313a207472616e736665722063616c6c6572206973206e6f74206f6040820152701ddb995c881b9bdc88185c1c1c9bdd9959607a1b606082015260800190565b6000835161277b8184602088016122ca565b83519083019061278f8183602088016122ca565b01949350505050565b81810381811115610500576105006126c0565b601f82111561073557600081815260208120601f850160051c810160208610156127d25750805b601f850160051c820191505b818110156127f1578281556001016127de565b505050505050565b815167ffffffffffffffff811115612813576128136124ab565b612827816128218454612686565b846127ab565b602080601f83116001811461285c57600084156128445750858301515b600019600386901b1c1916600185901b1785556127f1565b600085815260208120601f198616915b8281101561288b5788860151825594840194600190910190840161286c565b50858210156128a95787850151600019600388901b60f8161c191681555b5050505050600190811b01905550565b60208082526032908201527f4552433732313a207472616e7366657220746f206e6f6e20455243373231526560408201527131b2b4bb32b91034b6b83632b6b2b73a32b960711b606082015260800190565b6001600160a01b038581168252841660208201526040810183905260806060820181905260009061293e908301846122ee565b9695505050505050565b60006020828403121561295a57600080fd5b815161203f81612297565b634e487b7160e01b600052601260045260246000fd5b60008261298a5761298a612965565b500490565b60008261299e5761299e612965565b50069056fea264697066735822122049dcf7874ed8a19b83a6ebd9f2927802d3a2a7ddaa3cf6dacff7a9ffeff43c3264736f6c63430008110033",
  "linkReferences": {},
  "deployedLinkReferences": {}
}